{
  "_format": "hh-sol-artifact-1",
  "contractName": "DutchAuctionManager",
  "sourceName": "contracts/DutchAuctionManager.sol",
  "abi": [
    {
      "inputs": [
        {
          "internalType": "address",
          "name": "nftContract",
          "type": "address"
        },
        {
          "internalType": "uint256",
          "name": "tokenId",
          "type": "uint256"
        }
      ],
      "name": "AuctionAlreadyGoingOn",
      "type": "error"
    },
    {
      "inputs": [
        {
          "internalType": "address",
          "name": "nftContract",
          "type": "address"
        },
        {
          "internalType": "uint256",
          "name": "tokenId",
          "type": "uint256"
        }
      ],
      "name": "AuctionNotEndedYet",
      "type": "error"
    },
    {
      "inputs": [
        {
          "internalType": "address",
          "name": "nftContract",
          "type": "address"
        },
        {
          "internalType": "uint256",
          "name": "tokenId",
          "type": "uint256"
        }
      ],
      "name": "AuctionNotGoing",
      "type": "error"
    },
    {
      "inputs": [
        {
          "internalType": "address",
          "name": "account",
          "type": "address"
        }
      ],
      "name": "GivenAccountIsNotContract",
      "type": "error"
    },
    {
      "inputs": [
        {
          "internalType": "address",
          "name": "account",
          "type": "address"
        }
      ],
      "name": "GivenAccountIsNotErc20Token",
      "type": "error"
    },
    {
      "inputs": [
        {
          "internalType": "uint256",
          "name": "duration",
          "type": "uint256"
        }
      ],
      "name": "LessThanMinDuration",
      "type": "error"
    },
    {
      "inputs": [],
      "name": "Locked",
      "type": "error"
    },
    {
      "inputs": [
        {
          "internalType": "uint256",
          "name": "startingPrice",
          "type": "uint256"
        }
      ],
      "name": "NegativePricePossibility",
      "type": "error"
    },
    {
      "inputs": [
        {
          "internalType": "uint256",
          "name": "givenValue",
          "type": "uint256"
        }
      ],
      "name": "NotEnoughEthersToBuy",
      "type": "error"
    },
    {
      "inputs": [],
      "name": "OnlySeller",
      "type": "error"
    },
    {
      "inputs": [
        {
          "internalType": "uint256",
          "name": "tokenId",
          "type": "uint256"
        }
      ],
      "name": "YouAreNotAnOwner",
      "type": "error"
    },
    {
      "anonymous": false,
      "inputs": [
        {
          "indexed": true,
          "internalType": "address",
          "name": "contractAddress",
          "type": "address"
        },
        {
          "indexed": true,
          "internalType": "uint256",
          "name": "tokenId",
          "type": "uint256"
        },
        {
          "indexed": true,
          "internalType": "address",
          "name": "seller",
          "type": "address"
        }
      ],
      "name": "AuctionEnded",
      "type": "event"
    },
    {
      "anonymous": false,
      "inputs": [
        {
          "indexed": true,
          "internalType": "address",
          "name": "contractAddress",
          "type": "address"
        },
        {
          "indexed": true,
          "internalType": "uint256",
          "name": "tokenId",
          "type": "uint256"
        },
        {
          "indexed": true,
          "internalType": "address",
          "name": "seller",
          "type": "address"
        }
      ],
      "name": "AuctionStarted",
      "type": "event"
    },
    {
      "inputs": [],
      "name": "MIN_DURATION",
      "outputs": [
        {
          "internalType": "uint256",
          "name": "",
          "type": "uint256"
        }
      ],
      "stateMutability": "view",
      "type": "function"
    },
    {
      "inputs": [
        {
          "internalType": "address",
          "name": "",
          "type": "address"
        },
        {
          "internalType": "uint256",
          "name": "",
          "type": "uint256"
        }
      ],
      "name": "auctionGoingOn",
      "outputs": [
        {
          "internalType": "bool",
          "name": "",
          "type": "bool"
        }
      ],
      "stateMutability": "view",
      "type": "function"
    },
    {
      "inputs": [
        {
          "internalType": "address",
          "name": "",
          "type": "address"
        },
        {
          "internalType": "uint256",
          "name": "",
          "type": "uint256"
        }
      ],
      "name": "auctions",
      "outputs": [
        {
          "internalType": "uint256",
          "name": "duration",
          "type": "uint256"
        },
        {
          "internalType": "uint256",
          "name": "discountRate",
          "type": "uint256"
        },
        {
          "internalType": "uint256",
          "name": "startedAt",
          "type": "uint256"
        },
        {
          "internalType": "uint256",
          "name": "endsAt",
          "type": "uint256"
        },
        {
          "internalType": "uint256",
          "name": "startingPrice",
          "type": "uint256"
        },
        {
          "internalType": "address",
          "name": "erc20Token",
          "type": "address"
        },
        {
          "internalType": "address",
          "name": "seller",
          "type": "address"
        }
      ],
      "stateMutability": "view",
      "type": "function"
    },
    {
      "inputs": [
        {
          "internalType": "address",
          "name": "_nftContract",
          "type": "address"
        },
        {
          "internalType": "uint256",
          "name": "_tokenId",
          "type": "uint256"
        }
      ],
      "name": "buy",
      "outputs": [],
      "stateMutability": "payable",
      "type": "function"
    },
    {
      "inputs": [
        {
          "internalType": "address",
          "name": "_nftContract",
          "type": "address"
        },
        {
          "internalType": "uint256",
          "name": "_tokenId",
          "type": "uint256"
        }
      ],
      "name": "end",
      "outputs": [],
      "stateMutability": "nonpayable",
      "type": "function"
    },
    {
      "inputs": [
        {
          "internalType": "address",
          "name": "_nftContract",
          "type": "address"
        },
        {
          "internalType": "uint256",
          "name": "_tokenId",
          "type": "uint256"
        }
      ],
      "name": "getPrice",
      "outputs": [
        {
          "internalType": "uint256",
          "name": "",
          "type": "uint256"
        }
      ],
      "stateMutability": "view",
      "type": "function"
    },
    {
      "inputs": [
        {
          "internalType": "address",
          "name": "_nftContract",
          "type": "address"
        },
        {
          "internalType": "uint256",
          "name": "_tokenId",
          "type": "uint256"
        },
        {
          "internalType": "uint256",
          "name": "_duration",
          "type": "uint256"
        },
        {
          "internalType": "uint256",
          "name": "_discountRate",
          "type": "uint256"
        },
        {
          "internalType": "uint256",
          "name": "_startingPrice",
          "type": "uint256"
        },
        {
          "internalType": "address",
          "name": "_erc20Token",
          "type": "address"
        }
      ],
      "name": "start",
      "outputs": [],
      "stateMutability": "nonpayable",
      "type": "function"
    }
  ],
  "bytecode": "0x60806040526002805460ff19166001179055348015601c57600080fd5b50610f068061002c6000396000f3fe6080604052600436106100705760003560e01c8063b6a6d1771161004e578063b6a6d17714610177578063bf98870a1461018c578063cce7ec13146101d7578063e68abe9f146101ea57600080fd5b8063449e815d1461007557806344f91c1e146100a8578063695d69ba14610155575b600080fd5b34801561008157600080fd5b50610095610090366004610d5a565b61020a565b6040519081526020015b60405180910390f35b3480156100b457600080fd5b506101146100c3366004610d5a565b60006020818152928152604080822090935290815220805460018201546002830154600384015460048501546005860154600690960154949593949293919290916001600160a01b03908116911687565b60408051978852602088019690965294860193909352606085019190915260808401526001600160a01b0390811660a08401521660c082015260e00161009f565b34801561016157600080fd5b50610175610170366004610d5a565b6102bd565b005b34801561018357600080fd5b5061009560b481565b34801561019857600080fd5b506101c76101a7366004610d5a565b600160209081526000928352604080842090915290825290205460ff1681565b604051901515815260200161009f565b6101756101e5366004610d5a565b6104e0565b3480156101f657600080fd5b50610175610205366004610d86565b6108df565b6001600160a01b038083166000908152602081815260408083208584528252808320815160e08101835281548152600182015493810193909352600281015491830182905260038101546060840152600481015460808401526005810154851660a08401526006015490931660c0820152909182906102899042610dfa565b602083015160808401519192509060006102a38484610e0d565b90506102af8183610dfa565b955050505050505b92915050565b6001600160a01b03821660009081526001602090815260408083208484529091529020548290829060ff1661031b576040516319f3732760e21b81526001600160a01b03909216600483015260248201526044015b60405180910390fd5b50506001600160a01b03808316600090815260208181526040808320858452825291829020825160e08101845281548152600182015492810192909252600281015492820192909252600382015460608201819052600483015460808301526005830154841660a083015260069092015490921660c0830152839083904210156103c9576040516358f3f87160e11b81526001600160a01b0390921660048301526024820152604401610312565b505060c08101516040516323b872dd60e01b81526001600160a01b038516906323b872dd9061040090309085908890600401610e24565b600060405180830381600087803b15801561041a57600080fd5b505af115801561042e573d6000803e3d6000fd5b5050506001600160a01b03808616600081815260208181526040808320898452825280832083815560018082018590556002820185905560038201859055600482018590556005820180546001600160a01b0319908116909155600690920180549092169091558484528252808320898452909152808220805460ff1916905551928516935086927fe0c4b41d54d853b2b6f60078a33a889662b42592856bcd4e749b2f0927a9ac089190a450505050565b60025460ff16610503576040516303cb96db60e21b815260040160405180910390fd5b6002805460ff191690556001600160a01b03821660009081526001602090815260408083208484529091529020548290829060ff16610566576040516319f3732760e21b81526001600160a01b0390921660048301526024820152604401610312565b50506001600160a01b03808316600090815260208181526040808320858452825291829020825160e08101845281548152600182015492810192909252600281015492820192909252600382015460608201819052600483015460808301526005830154841660a083015260069092015490921660c083015283908390421115610614576040516319f3732760e21b81526001600160a01b0390921660048301526024820152604401610312565b505060c081015160a082015184600061062d828761020a565b60a08601519091506001600160a01b031661074a5734818110156106675760405163053ee6f960e41b815260040161031291815260200190565b506040516323b872dd60e01b81526001600160a01b038316906323b872dd9061069890309033908b90600401610e24565b600060405180830381600087803b1580156106b257600080fd5b505af11580156106c6573d6000803e3d6000fd5b50506040516001600160a01b038716925083156108fc02915083906000818181858888f19350505050158015610700573d6000803e3d6000fd5b50600061070d8234610dfa565b9050801561074457604051339082156108fc029083906000818181858888f19350505050158015610742573d6000803e3d6000fd5b505b50610821565b6040516323b872dd60e01b81526001600160a01b038416906323b872dd9061077a90339088908690600401610e24565b6020604051808303816000875af1158015610799573d6000803e3d6000fd5b505050506040513d601f19601f820116820180604052508101906107bd9190610e48565b506040516323b872dd60e01b81526001600160a01b038316906323b872dd906107ee90309033908b90600401610e24565b600060405180830381600087803b15801561080857600080fd5b505af115801561081c573d6000803e3d6000fd5b505050505b6001600160a01b038088166000818152602081815260408083208b8452825280832083815560018082018590556002820185905560038201859055600482018590556005820180546001600160a01b03199081169091556006909201805490921690915584845282528083208b8452909152808220805460ff1916905551928716928992917fe0c4b41d54d853b2b6f60078a33a889662b42592856bcd4e749b2f0927a9ac0891a450506002805460ff191660011790555050505050565b6001600160a01b03861660009081526001602090815260408083208884529091529020548690869060ff161561093957604051639db1453960e01b81526001600160a01b0390921660048301526024820152604401610312565b505060b48410158490610962576040516311f3336360e11b815260040161031291815260200190565b508161096e8585610e0d565b108290610991576040516384ba649160e01b815260040161031291815260200190565b506001600160a01b03811615610a045780803b6109cd576040516363a3c48760e11b81526001600160a01b039091166004820152602401610312565b506109d781610cb5565b8190610a0257604051634f50d43560e11b81526001600160a01b039091166004820152602401610312565b505b6040516331a9108f60e11b8152600481018690523390879082906001600160a01b03831690636352211e90602401602060405180830381865afa158015610a4f573d6000803e3d6000fd5b505050506040513d601f19601f82011682018060405250810190610a739190610e71565b6001600160a01b0316148790610a9f57604051630b62ada560e11b815260040161031291815260200190565b506040516323b872dd60e01b81526001600160a01b038216906323b872dd90610ad090859030908c90600401610e24565b600060405180830381600087803b158015610aea57600080fd5b505af1158015610afe573d6000803e3d6000fd5b5050505060006040518060e001604052808881526020018781526020014281526020018842610b2d9190610e8e565b8152602001868152602001856001600160a01b03168152602001846001600160a01b03168152509050806000808b6001600160a01b03166001600160a01b0316815260200190815260200160002060008a8152602001908152602001600020600082015181600001556020820151816001015560408201518160020155606082015181600301556080820151816004015560a08201518160050160006101000a8154816001600160a01b0302191690836001600160a01b0316021790555060c08201518160060160006101000a8154816001600160a01b0302191690836001600160a01b0316021790555090505060018060008b6001600160a01b03166001600160a01b0316815260200190815260200160002060008a815260200190815260200160002060006101000a81548160ff021916908315150217905550826001600160a01b0316888a6001600160a01b03167f881afad1f847f87e78464b076756f7b1016a2062fbff555c3c4992527cc2dbe060405160405180910390a4505050505050505050565b60408051600481526024810182526020810180516001600160e01b03166318160ddd60e01b179052905160009182916001600160a01b03851691610cf891610ea1565b600060405180830381855afa9150503d8060008114610d33576040519150601f19603f3d011682016040523d82523d6000602084013e610d38565b606091505b5090949350505050565b6001600160a01b0381168114610d5757600080fd5b50565b60008060408385031215610d6d57600080fd5b8235610d7881610d42565b946020939093013593505050565b60008060008060008060c08789031215610d9f57600080fd5b8635610daa81610d42565b95506020870135945060408701359350606087013592506080870135915060a0870135610dd681610d42565b809150509295509295509295565b634e487b7160e01b600052601160045260246000fd5b818103818111156102b7576102b7610de4565b80820281158282048414176102b7576102b7610de4565b6001600160a01b039384168152919092166020820152604081019190915260600190565b600060208284031215610e5a57600080fd5b81518015158114610e6a57600080fd5b9392505050565b600060208284031215610e8357600080fd5b8151610e6a81610d42565b808201808211156102b7576102b7610de4565b6000825160005b81811015610ec25760208186018101518583015201610ea8565b50600092019182525091905056fea2646970667358221220c1a5a75be5106e24320146df81f03a8e1dc0c12c98535cd96496a451ced02d8f64736f6c634300081c0033",
  "linkReferences": {},
  "deployedLinkReferences": {}
}