{
  "_format": "hh-sol-artifact-1",
  "contractName": "EnglishAuctionManager",
  "sourceName": "contracts/EnglishAuctionManager..sol",
  "abi": [
    {
      "inputs": [
        {
          "internalType": "address",
          "name": "nftContract",
          "type": "address"
        },
        {
          "internalType": "uint256",
          "name": "tokenId",
          "type": "uint256"
        }
      ],
      "name": "AuctionAlreadyGoingOn",
      "type": "error"
    },
    {
      "inputs": [
        {
          "internalType": "address",
          "name": "nftContract",
          "type": "address"
        },
        {
          "internalType": "uint256",
          "name": "tokenId",
          "type": "uint256"
        }
      ],
      "name": "AuctionNotEndedYet",
      "type": "error"
    },
    {
      "inputs": [
        {
          "internalType": "address",
          "name": "nftContract",
          "type": "address"
        },
        {
          "internalType": "uint256",
          "name": "tokenId",
          "type": "uint256"
        }
      ],
      "name": "AuctionNotGoing",
      "type": "error"
    },
    {
      "inputs": [
        {
          "internalType": "address",
          "name": "account",
          "type": "address"
        }
      ],
      "name": "GivenAccountIsNotContract",
      "type": "error"
    },
    {
      "inputs": [
        {
          "internalType": "address",
          "name": "account",
          "type": "address"
        }
      ],
      "name": "GivenAccountIsNotErc20Token",
      "type": "error"
    },
    {
      "inputs": [
        {
          "internalType": "uint256",
          "name": "givenValue",
          "type": "uint256"
        }
      ],
      "name": "GivenValueLessThanNextMinBid",
      "type": "error"
    },
    {
      "inputs": [
        {
          "internalType": "uint256",
          "name": "duration",
          "type": "uint256"
        }
      ],
      "name": "LessThanMinDuration",
      "type": "error"
    },
    {
      "inputs": [],
      "name": "Locked",
      "type": "error"
    },
    {
      "inputs": [],
      "name": "MinStepCannotEqualZero",
      "type": "error"
    },
    {
      "inputs": [
        {
          "internalType": "uint256",
          "name": "givenValue",
          "type": "uint256"
        }
      ],
      "name": "NotEnoughEthersToBuy",
      "type": "error"
    },
    {
      "inputs": [],
      "name": "StartingPriceCannotEqualZero",
      "type": "error"
    },
    {
      "inputs": [],
      "name": "ThisFunctionOnlyForEtherBids",
      "type": "error"
    },
    {
      "inputs": [],
      "name": "ThisFunctionOnlyForTokenBids",
      "type": "error"
    },
    {
      "inputs": [
        {
          "internalType": "uint256",
          "name": "tokenId",
          "type": "uint256"
        }
      ],
      "name": "YouAreNotAnOwner",
      "type": "error"
    },
    {
      "anonymous": false,
      "inputs": [
        {
          "indexed": true,
          "internalType": "address",
          "name": "contractAddress",
          "type": "address"
        },
        {
          "indexed": true,
          "internalType": "uint256",
          "name": "tokenId",
          "type": "uint256"
        },
        {
          "indexed": true,
          "internalType": "address",
          "name": "seller",
          "type": "address"
        }
      ],
      "name": "AuctionEnded",
      "type": "event"
    },
    {
      "anonymous": false,
      "inputs": [
        {
          "indexed": true,
          "internalType": "address",
          "name": "contractAddress",
          "type": "address"
        },
        {
          "indexed": true,
          "internalType": "uint256",
          "name": "tokenId",
          "type": "uint256"
        },
        {
          "indexed": true,
          "internalType": "address",
          "name": "seller",
          "type": "address"
        }
      ],
      "name": "AuctionStarted",
      "type": "event"
    },
    {
      "anonymous": false,
      "inputs": [
        {
          "indexed": true,
          "internalType": "address",
          "name": "contractAddress",
          "type": "address"
        },
        {
          "indexed": true,
          "internalType": "uint256",
          "name": "tokenId",
          "type": "uint256"
        },
        {
          "indexed": true,
          "internalType": "address",
          "name": "bidder",
          "type": "address"
        },
        {
          "indexed": false,
          "internalType": "uint256",
          "name": "bid",
          "type": "uint256"
        }
      ],
      "name": "BidSubmited",
      "type": "event"
    },
    {
      "inputs": [],
      "name": "MIN_DURATION",
      "outputs": [
        {
          "internalType": "uint256",
          "name": "",
          "type": "uint256"
        }
      ],
      "stateMutability": "view",
      "type": "function"
    },
    {
      "inputs": [
        {
          "internalType": "address",
          "name": "",
          "type": "address"
        },
        {
          "internalType": "uint256",
          "name": "",
          "type": "uint256"
        }
      ],
      "name": "auctionGoingOn",
      "outputs": [
        {
          "internalType": "bool",
          "name": "",
          "type": "bool"
        }
      ],
      "stateMutability": "view",
      "type": "function"
    },
    {
      "inputs": [
        {
          "internalType": "address",
          "name": "",
          "type": "address"
        },
        {
          "internalType": "uint256",
          "name": "",
          "type": "uint256"
        }
      ],
      "name": "auctions",
      "outputs": [
        {
          "internalType": "uint256",
          "name": "duration",
          "type": "uint256"
        },
        {
          "internalType": "uint256",
          "name": "minStep",
          "type": "uint256"
        },
        {
          "internalType": "uint256",
          "name": "startedAt",
          "type": "uint256"
        },
        {
          "internalType": "uint256",
          "name": "endsAt",
          "type": "uint256"
        },
        {
          "internalType": "uint256",
          "name": "startingPrice",
          "type": "uint256"
        },
        {
          "internalType": "address",
          "name": "erc20Token",
          "type": "address"
        },
        {
          "internalType": "address",
          "name": "seller",
          "type": "address"
        },
        {
          "internalType": "uint256",
          "name": "highestBid",
          "type": "uint256"
        },
        {
          "internalType": "address",
          "name": "highestBidder",
          "type": "address"
        }
      ],
      "stateMutability": "view",
      "type": "function"
    },
    {
      "inputs": [
        {
          "internalType": "address",
          "name": "_nftContract",
          "type": "address"
        },
        {
          "internalType": "uint256",
          "name": "_tokenId",
          "type": "uint256"
        },
        {
          "internalType": "uint256",
          "name": "_tokensAmount",
          "type": "uint256"
        }
      ],
      "name": "bid",
      "outputs": [],
      "stateMutability": "nonpayable",
      "type": "function"
    },
    {
      "inputs": [
        {
          "internalType": "address",
          "name": "_nftContract",
          "type": "address"
        },
        {
          "internalType": "uint256",
          "name": "_tokenId",
          "type": "uint256"
        }
      ],
      "name": "bid",
      "outputs": [],
      "stateMutability": "payable",
      "type": "function"
    },
    {
      "inputs": [
        {
          "internalType": "address",
          "name": "_nftContract",
          "type": "address"
        },
        {
          "internalType": "uint256",
          "name": "_tokenId",
          "type": "uint256"
        }
      ],
      "name": "end",
      "outputs": [],
      "stateMutability": "nonpayable",
      "type": "function"
    },
    {
      "inputs": [
        {
          "internalType": "address",
          "name": "_nftContract",
          "type": "address"
        },
        {
          "internalType": "uint256",
          "name": "_tokenId",
          "type": "uint256"
        },
        {
          "internalType": "uint256",
          "name": "_duration",
          "type": "uint256"
        },
        {
          "internalType": "uint256",
          "name": "_minStep",
          "type": "uint256"
        },
        {
          "internalType": "uint256",
          "name": "_startingPrice",
          "type": "uint256"
        },
        {
          "internalType": "address",
          "name": "_erc20Token",
          "type": "address"
        }
      ],
      "name": "start",
      "outputs": [],
      "stateMutability": "nonpayable",
      "type": "function"
    },
    {
      "inputs": [
        {
          "internalType": "address",
          "name": "_nftContract",
          "type": "address"
        },
        {
          "internalType": "uint256",
          "name": "_tokenId",
          "type": "uint256"
        }
      ],
      "name": "withdraw",
      "outputs": [],
      "stateMutability": "nonpayable",
      "type": "function"
    }
  ],
  "bytecode": "0x60806040526003805460ff19166001179055348015601c57600080fd5b506114e38061002c6000396000f3fe60806040526004361061007b5760003560e01c8063b6a6d1771161004e578063b6a6d177146101ac578063bf98870a146101cf578063e68abe9f1461021a578063f3fef3a31461023a57600080fd5b80630f41ba4b1461008057806344f91c1e146100a257806359d667a514610179578063695d69ba1461018c575b600080fd5b34801561008c57600080fd5b506100a061009b36600461132e565b61025a565b005b3480156100ae57600080fd5b5061011e6100bd366004611363565b6000602081815292815260408082209093529081522080546001820154600283015460038401546004850154600586015460068701546007880154600890980154969795969495939492936001600160a01b03928316939183169290911689565b60408051998a5260208a019890985296880195909552606087019390935260808601919091526001600160a01b0390811660a086015290811660c085015260e084019190915216610100820152610120015b60405180910390f35b6100a0610187366004611363565b6105ed565b34801561019857600080fd5b506100a06101a7366004611363565b6108f4565b3480156101b857600080fd5b506101c160b481565b604051908152602001610170565b3480156101db57600080fd5b5061020a6101ea366004611363565b600160209081526000928352604080842090915290825290205460ff1681565b6040519015158152602001610170565b34801561022657600080fd5b506100a061023536600461138f565b610c84565b34801561024657600080fd5b506100a0610255366004611363565b6110bd565b6001600160a01b03831660009081526001602090815260408083208584529091529020548390839060ff166102b8576040516319f3732760e21b81526001600160a01b03909216600483015260248201526044015b60405180910390fd5b50506001600160a01b0380841660009081526020818152604080832086845282529182902082516101208101845281548152600182015492810192909252600281015492820192909252600382015460608201819052600483015460808301526005830154841660a08301526006830154841660c0830152600783015460e08301526008909201549092166101008301528490849042111561037e576040516319f3732760e21b81526001600160a01b03909216600483015260248201526044016102af565b505060a08101516001600160a01b0381166103ac57604051631393a13960e21b815260040160405180910390fd5b60e082015160208301513360008390036104005760008286608001516103d291906113ed565b905086818110156103f9576040516352728caf60e11b81526004016102af91815260200190565b50506104f5565b600061040c83856113ed565b90508681811015610433576040516352728caf60e11b81526004016102af91815260200190565b506040516323b872dd60e01b81526001600160a01b038616906323b872dd9061046490859030908c90600401611414565b6020604051808303816000875af1158015610483573d6000803e3d6000fd5b505050506040513d601f19601f820116820180604052508101906104a79190611438565b506101008601516001600160a01b03808b1660009081526002602090815260408083208d84528252808320938516835292905290812080548792906104ed9084906113ed565b909155505050505b60e085018681526001600160a01b0380831661010088018181528b83166000818152602081815260408083208f84528252918290208c518155908c01516001820155818c0151600282015560608c0151600382015560808c0151600482015560a08c01516005820180549188166001600160a01b031992831617905560c08d01516006830180549189169183169190911790559651600782015592516008909301805493909516929095169190911790925591518991907ffb8db1b197c40a6fb59a98ab03b9834ff0ad4351c09384d74cce04eeb39dce4c906105db908b815260200190565b60405180910390a45050505050505050565b6001600160a01b03821660009081526001602090815260408083208484529091529020548290829060ff16610646576040516319f3732760e21b81526001600160a01b03909216600483015260248201526044016102af565b50506001600160a01b0380831660009081526020818152604080832085845282529182902082516101208101845281548152600182015492810192909252600281015492820192909252600382015460608201819052600483015460808301526005830154841660a08301526006830154841660c0830152600783015460e08301526008909201549092166101008301528390839042111561070c576040516319f3732760e21b81526001600160a01b03909216600483015260248201526044016102af565b505060a08101516001600160a01b0381161561073b5760405163ef7b0ce360e01b815260040160405180910390fd5b60e0820151602083015134600083900361078f57600082866080015161076191906113ed565b90508181811015610788576040516352728caf60e11b81526004016102af91815260200190565b5050610810565b600061079b83856113ed565b905081818110156107c2576040516352728caf60e11b81526004016102af91815260200190565b506101008601516001600160a01b03808a1660009081526002602090815260408083208c84528252808320938516835292905290812080548792906108089084906113ed565b909155505050505b60e085018181523361010087018181526001600160a01b038a81166000818152602081815260408083208e84528252918290208c518155818d01516001820155828d0151600282015560608d0151600382015560808d0151600482015560a08d01516005820180546001600160a01b031990811692881692909217905560c08e015160068301805483169188169190911790559751600782015594516008909501805490971694909316939093179094559051848152919283928a927ffb8db1b197c40a6fb59a98ab03b9834ff0ad4351c09384d74cce04eeb39dce4c91016105db565b6001600160a01b03821660009081526001602090815260408083208484529091529020548290829060ff1661094d576040516319f3732760e21b81526001600160a01b03909216600483015260248201526044016102af565b50506001600160a01b0380831660009081526020818152604080832085845282529182902082516101208101845281548152600182015492810192909252600281015492820192909252600382015460608201819052600483015460808301526005830154841660a08301526006830154841660c0830152600783015460e083015260089092015490921661010083015283908390421015610a13576040516358f3f87160e11b81526001600160a01b03909216600483015260248201526044016102af565b505060c08101516101008201516001600160a01b03811615610b61576040516323b872dd60e01b81526001600160a01b038616906323b872dd90610a5f90309085908990600401611414565b600060405180830381600087803b158015610a7957600080fd5b505af1158015610a8d573d6000803e3d6000fd5b5050505060e083015160a08401516001600160a01b038116610ae5576040516001600160a01b0385169083156108fc029084906000818181858888f19350505050158015610adf573d6000803e3d6000fd5b50610b5a565b60405163a9059cbb60e01b81526001600160a01b0385811660048301526024820184905282169063a9059cbb906044016020604051808303816000875af1158015610b34573d6000803e3d6000fd5b505050506040513d601f19601f82011682018060405250810190610b589190611438565b505b5050610bc4565b6040516323b872dd60e01b81526001600160a01b038616906323b872dd90610b9190309086908990600401611414565b600060405180830381600087803b158015610bab57600080fd5b505af1158015610bbf573d6000803e3d6000fd5b505050505b6001600160a01b03808616600081815260208181526040808320898452825280832083815560018082018590556002820185905560038201859055600482018590556005820180546001600160a01b03199081169091556006830180548216905560078301869055600890920180549092169091558484528252808320898452909152808220805460ff1916905551928516928792917fe0c4b41d54d853b2b6f60078a33a889662b42592856bcd4e749b2f0927a9ac0891a45050505050565b6001600160a01b03861660009081526001602090815260408083208884529091529020548690869060ff1615610cde57604051639db1453960e01b81526001600160a01b03909216600483015260248201526044016102af565b505060b48410158490610d07576040516311f3336360e11b81526004016102af91815260200190565b5060008211610d295760405163b56ba78360e01b815260040160405180910390fd5b60008311610d4a57604051630fa3d6df60e11b815260040160405180910390fd5b6001600160a01b03811615610dbc5780803b610d85576040516363a3c48760e11b81526001600160a01b0390911660048201526024016102af565b50610d8f81611289565b8190610dba57604051634f50d43560e11b81526001600160a01b0390911660048201526024016102af565b505b6040516331a9108f60e11b8152600481018690523390879082906001600160a01b03831690636352211e90602401602060405180830381865afa158015610e07573d6000803e3d6000fd5b505050506040513d601f19601f82011682018060405250810190610e2b9190611461565b6001600160a01b0316148790610e5757604051630b62ada560e11b81526004016102af91815260200190565b506040516323b872dd60e01b81526001600160a01b038216906323b872dd90610e8890859030908c90600401611414565b600060405180830381600087803b158015610ea257600080fd5b505af1158015610eb6573d6000803e3d6000fd5b5050505060006040518061012001604052808881526020018781526020014281526020018842610ee691906113ed565b8152602001868152602001856001600160a01b03168152602001846001600160a01b031681526020016000815260200160006001600160a01b03168152509050806000808b6001600160a01b03166001600160a01b0316815260200190815260200160002060008a8152602001908152602001600020600082015181600001556020820151816001015560408201518160020155606082015181600301556080820151816004015560a08201518160050160006101000a8154816001600160a01b0302191690836001600160a01b0316021790555060c08201518160060160006101000a8154816001600160a01b0302191690836001600160a01b0316021790555060e082015181600701556101008201518160080160006101000a8154816001600160a01b0302191690836001600160a01b0316021790555090505060018060008b6001600160a01b03166001600160a01b0316815260200190815260200160002060008a815260200190815260200160002060006101000a81548160ff021916908315150217905550826001600160a01b0316888a6001600160a01b03167f881afad1f847f87e78464b076756f7b1016a2062fbff555c3c4992527cc2dbe060405160405180910390a4505050505050505050565b60035460ff166110e0576040516303cb96db60e21b815260040160405180910390fd5b6003805460ff191681556001600160a01b0380841660008181526020818152604080832087845282528083208151610120810183528154815260018201548185015260028083015482850152978201546060820152600482015460808201526005820154871660a082018190526006830154881660c0830152600783015460e083015260089092015490961661010087015293835294815284822086835281528482203380845291529390205491929091826111d2576040516001600160a01b0383169082156108fc029083906000818181858888f193505050501580156111cc573d6000803e3d6000fd5b50611247565b60405163a9059cbb60e01b81526001600160a01b0383811660048301526024820183905284169063a9059cbb906044016020604051808303816000875af1158015611221573d6000803e3d6000fd5b505050506040513d601f19601f820116820180604052508101906112459190611438565b505b506001600160a01b039485166000908152600260209081526040808320968352958152858220929096168152945250508120556003805460ff19166001179055565b60408051600481526024810182526020810180516001600160e01b03166318160ddd60e01b179052905160009182916001600160a01b038516916112cc9161147e565b600060405180830381855afa9150503d8060008114611307576040519150601f19603f3d011682016040523d82523d6000602084013e61130c565b606091505b5090949350505050565b6001600160a01b038116811461132b57600080fd5b50565b60008060006060848603121561134357600080fd5b833561134e81611316565b95602085013595506040909401359392505050565b6000806040838503121561137657600080fd5b823561138181611316565b946020939093013593505050565b60008060008060008060c087890312156113a857600080fd5b86356113b381611316565b95506020870135945060408701359350606087013592506080870135915060a08701356113df81611316565b809150509295509295509295565b8082018082111561140e57634e487b7160e01b600052601160045260246000fd5b92915050565b6001600160a01b039384168152919092166020820152604081019190915260600190565b60006020828403121561144a57600080fd5b8151801515811461145a57600080fd5b9392505050565b60006020828403121561147357600080fd5b815161145a81611316565b6000825160005b8181101561149f5760208186018101518583015201611485565b50600092019182525091905056fea2646970667358221220d88d242faaf5508a508fa8dcdd9b3e57bed9fcd980a5bdfb6dee4e209841303264736f6c634300081c0033",
  "linkReferences": {},
  "deployedLinkReferences": {}
}